{
    "abi": [
        {
            "type": "function",
            "name": "UPGRADE_INTERFACE_VERSION",
            "inputs": [],
            "outputs": [
                {
                    "name": "",
                    "type": "string",
                    "internalType": "string"
                }
            ],
            "stateMutability": "view"
        },
        {
            "type": "function",
            "name": "count",
            "inputs": [],
            "outputs": [
                {
                    "name": "",
                    "type": "uint256",
                    "internalType": "uint256"
                }
            ],
            "stateMutability": "view"
        },
        {
            "type": "function",
            "name": "increment",
            "inputs": [],
            "outputs": [],
            "stateMutability": "nonpayable"
        },
        {
            "type": "function",
            "name": "initialize",
            "inputs": [],
            "outputs": [],
            "stateMutability": "nonpayable"
        },
        {
            "type": "function",
            "name": "proxiableUUID",
            "inputs": [],
            "outputs": [
                {
                    "name": "",
                    "type": "bytes32",
                    "internalType": "bytes32"
                }
            ],
            "stateMutability": "view"
        },
        {
            "type": "function",
            "name": "upgradeToAndCall",
            "inputs": [
                {
                    "name": "newImplementation",
                    "type": "address",
                    "internalType": "address"
                },
                {
                    "name": "data",
                    "type": "bytes",
                    "internalType": "bytes"
                }
            ],
            "outputs": [],
            "stateMutability": "payable"
        },
        {
            "type": "event",
            "name": "Initialized",
            "inputs": [
                {
                    "name": "version",
                    "type": "uint64",
                    "indexed": false,
                    "internalType": "uint64"
                }
            ],
            "anonymous": false
        },
        {
            "type": "event",
            "name": "Upgraded",
            "inputs": [
                {
                    "name": "implementation",
                    "type": "address",
                    "indexed": true,
                    "internalType": "address"
                }
            ],
            "anonymous": false
        },
        {
            "type": "error",
            "name": "AddressEmptyCode",
            "inputs": [
                {
                    "name": "target",
                    "type": "address",
                    "internalType": "address"
                }
            ]
        },
        {
            "type": "error",
            "name": "ERC1967InvalidImplementation",
            "inputs": [
                {
                    "name": "implementation",
                    "type": "address",
                    "internalType": "address"
                }
            ]
        },
        {
            "type": "error",
            "name": "ERC1967NonPayable",
            "inputs": []
        },
        {
            "type": "error",
            "name": "FailedCall",
            "inputs": []
        },
        {
            "type": "error",
            "name": "InvalidInitialization",
            "inputs": []
        },
        {
            "type": "error",
            "name": "NotInitializing",
            "inputs": []
        },
        {
            "type": "error",
            "name": "UUPSUnauthorizedCallContext",
            "inputs": []
        },
        {
            "type": "error",
            "name": "UUPSUnsupportedProxiableUUID",
            "inputs": [
                {
                    "name": "slot",
                    "type": "bytes32",
                    "internalType": "bytes32"
                }
            ]
        }
    ],
    "bytecode": {
        "object": "0x60a060405230608052348015601357600080fd5b506080516107ee61003d600039600081816102730152818161029c01526103e101526107ee6000f3fe6080604052600436106100555760003560e01c806306661abd1461005a5780634f1ef2861461008357806352d1902d146100985780638129fc1c146100ad578063ad3cb1cc146100c2578063d09de08a14610100575b600080fd5b34801561006657600080fd5b5061007060005481565b6040519081526020015b60405180910390f35b61009661009136600461060d565b610115565b005b3480156100a457600080fd5b5061007061012b565b3480156100b957600080fd5b50610096610148565b3480156100ce57600080fd5b506100f3604051806040016040528060058152602001640352e302e360dc1b81525081565b60405161007a9190610709565b34801561010c57600080fd5b50610096610252565b61011d610268565b610127828261030f565b5050565b60006101356103d6565b5060008051602061079983398151915290565b7ff0c57e16840df040f15088dc2f81fe391c3923bec73e23a9662efc9c229c6a008054600160401b810460ff16159067ffffffffffffffff1660008115801561018e5750825b905060008267ffffffffffffffff1660011480156101ab5750303b155b9050811580156101b9575080155b156101d75760405163f92ee8a960e01b815260040160405180910390fd5b845467ffffffffffffffff19166001178555831561020157845460ff60401b1916600160401b1785555b60008055831561024b57845460ff60401b19168555604051600181527fc7f505b2f371ae2175ee4913f4499e1f2633a7b5936321eed1cdaeb6115181d29060200160405180910390a15b5050505050565b6000805490806102618361073c565b9190505550565b306001600160a01b037f00000000000000000000000000000000000000000000000000000000000000001614806102ef57507f00000000000000000000000000000000000000000000000000000000000000006001600160a01b03166102e3600080516020610799833981519152546001600160a01b031690565b6001600160a01b031614155b1561030d5760405163703e46dd60e11b815260040160405180910390fd5b565b816001600160a01b03166352d1902d6040518163ffffffff1660e01b8152600401602060405180830381865afa925050508015610369575060408051601f3d908101601f1916820190925261036691810190610763565b60015b61039657604051634c9c8ce360e01b81526001600160a01b03831660048201526024015b60405180910390fd5b60008051602061079983398151915281146103c757604051632a87526960e21b81526004810182905260240161038d565b6103d1838361041f565b505050565b306001600160a01b037f0000000000000000000000000000000000000000000000000000000000000000161461030d5760405163703e46dd60e11b815260040160405180910390fd5b61042882610475565b6040516001600160a01b038316907fbc7cd75a20ee27fd9adebab32041f755214dbc6bffa90cc0225b39da2e5c2d3b90600090a280511561046d576103d182826104da565b610127610550565b806001600160a01b03163b6000036104ab57604051634c9c8ce360e01b81526001600160a01b038216600482015260240161038d565b60008051602061079983398151915280546001600160a01b0319166001600160a01b0392909216919091179055565b6060600080846001600160a01b0316846040516104f7919061077c565b600060405180830381855af49150503d8060008114610532576040519150601f19603f3d011682016040523d82523d6000602084013e610537565b606091505b509150915061054785838361056f565b95945050505050565b341561030d5760405163b398979f60e01b815260040160405180910390fd5b6060826105845761057f826105ce565b6105c7565b815115801561059b57506001600160a01b0384163b155b156105c457604051639996b31560e01b81526001600160a01b038516600482015260240161038d565b50805b9392505050565b8051156105de5780518082602001fd5b60405163d6bda27560e01b815260040160405180910390fd5b634e487b7160e01b600052604160045260246000fd5b6000806040838503121561062057600080fd5b82356001600160a01b038116811461063757600080fd5b9150602083013567ffffffffffffffff81111561065357600080fd5b8301601f8101851361066457600080fd5b803567ffffffffffffffff81111561067e5761067e6105f7565b604051601f8201601f19908116603f0116810167ffffffffffffffff811182821017156106ad576106ad6105f7565b6040528181528282016020018710156106c557600080fd5b816020840160208301376000602083830101528093505050509250929050565b60005b838110156107005781810151838201526020016106e8565b50506000910152565b60208152600082518060208401526107288160408501602087016106e5565b601f01601f19169190910160400192915050565b60006001820161075c57634e487b7160e01b600052601160045260246000fd5b5060010190565b60006020828403121561077557600080fd5b5051919050565b6000825161078e8184602087016106e5565b919091019291505056fe360894a13ba1a3210667c828492db98dca3e2076cc3735a920a3ca505d382bbca26469706673582212208da5c425b673df001ef8d2923d9b1587d155057a6d541c4d181e4465067bfe7a64736f6c634300081a0033",
        "linkReferences": {}
    },
    "methodIdentifiers": {
        "UPGRADE_INTERFACE_VERSION()": "ad3cb1cc",
        "count()": "06661abd",
        "increment()": "d09de08a",
        "initialize()": "8129fc1c",
        "proxiableUUID()": "52d1902d",
        "upgradeToAndCall(address,bytes)": "4f1ef286"
    },
    "id": 9
}